:020000040000FA
:100000000C945D000C9485000C9485000C94850084
:100010000C9485000C9485000C9485000C9485004C
:100020000C9485000C9485000C9485000C941102AE
:100030000C9485000C9485000C9485000C9485002C
:100040000C94C7010C9485000C9485000C948500D9
:100050000C9485000C9485000C9485000C9485000C
:100060000C9485000C94850000000008000201003B
:100070000003040700000000000000000000000072
:10008000250028002B0000000000240027002A0083
:10009000040404040404040402020202020203032E
:1000A0000303030301020408102040800102040836
:1000B0001020010204081020A30311241FBECFEF5B
:1000C000D8E0DEBFCDBF11E0A0E0B1E0E2E9F9E0A9
:1000D00002C005900D92A030B107D9F721E0A0E051
:1000E000B1E001C01D92AC33B207E1F710E0CDE5FD
:1000F000D0E004C02197FE010E94C104CC35D10795
:10010000C9F70E94E8020C94C7040C940000CF9336
:10011000DF93DC018C918C3008F06DC0CB01FB01CA
:10012000EC55FF4F249180579F4FFC018491882309
:1001300099F090E0880F991FFC01EA57FF4FC59195
:10014000D491FC01E458FF4F859194918FB7F894B6
:10015000E881E22BE8838FBF8C91282F30E0F901F2
:10016000EE0FFF1FE20FF31FE85EFE4F962F9F7307
:100170006081607C692B608311961C9211971296A6
:100180001C9212972CE0622F0E94AE04829FB00155
:10019000112430E020E0AB01420F531FFA01EE0FB3
:1001A000FF1FE40FF51FE85EFE4F908196FD16C01D
:1001B0002F5F3F4F2C30310571F781110FC0109226
:1001C000800082E08093810010928500109284006C
:1001D000B19A80916F00826080936F00EC918E2FB6
:1001E00090E0FC01EE0FFF1FE80FF91FE85EFE4FE5
:1001F0008081806480838C91DF91CF91089590E01D
:10020000FC01E859FF4F2491FC01EC55FF4F34915C
:10021000FC01E057FF4FE491EE23C9F0222339F0AF
:10022000233001F1A8F4213019F1223029F1F0E056
:10023000EE0FFF1FE458FF4FA591B4918FB7F894CC
:10024000EC91611126C030953E233C938FBF0895F9
:100250002730A9F02830C9F0243049F78091800078
:100260008F7D03C0809180008F7780938000DFCFE7
:1002700084B58F7784BDDBCF84B58F7DFBCF809134
:10028000B0008F778093B000D2CF8091B0008F7D87
:10029000F9CF3E2BDACFCF92DF92EF92FF92CF933E
:1002A000DF93EC01603282E07807CCF5653B7105A5
:1002B00014F064EB70E0898128E830E0281B3109F4
:1002C00087FD3395220F331F220F331F6901330F30
:1002D000EE08FF088A8128E532E0281B310987FDF6
:1002E0003395220F331F220F331F032E000C440BB4
:1002F000550B2C193D094E095F09DB0177FF02C040
:10030000B0E0A0E00E94D90324EB30E040E050E0F0
:100310000E94AF03C20ED31EE41EF51EB601E88193
:10032000EC3070F5298188E890E0821B910927FD67
:100330009395880F991F880F991F681779077CF08C
:100340002A8188E592E0821B910927FD9395880F09
:10035000991F880F991F681779070CF4CB01029732
:10036000880F991F4FB7F8942E2F30E0F901EE0F48
:10037000FF1FE20FF31FE85EFE4F928381834FBFA2
:10038000DF91CF91FF90EF90DF90CF9008951F9273
:100390000F920FB60F9211242F933F938F939F9339
:1003A000AF93BF938091140190911501A091160114
:1003B000B09117013091130123E0230F2D3758F529
:1003C0000196A11DB11D20931301809314019093F8
:1003D0001501A0931601B093170180910F01909120
:1003E0001001A0911101B09112010196A11DB11D42
:1003F00080930F0190931001A0931101B09312010B
:10040000BF91AF919F918F913F912F910F900FBE10
:100410000F901F90189526E8230F0296A11DB11D7D
:10042000D2CF1F920F920FB60F9211242F933F93AA
:100430004F935F936F937F938F939F93AF93BF93EC
:10044000CF93DF93EF93FF9380910001C09101015F
:10045000D0E087FF24C01092850010928400809124
:1004600000018F5F8093000180910001082E000C35
:10047000990B8C179D0724F4809100018C30C4F1F6
:100480008091840090918500049680349C4908F402
:100490007AC08091840090918500049676C0809106
:1004A0000001082E000C990B8C179D07C4F6E091F3
:1004B00000018E2FEE0F990BFC01EE0FFF1FE80FCE
:1004C000F91FE85EFE4F808186FFC9CFE0910001F1
:1004D0008E2FEE0F990BFC01EE0FFF1FE80FF91F97
:1004E000E85EFE4F808160E08F730E94FF00B7CF0F
:1004F0002091840030918500E09100018E2FEE0F55
:10050000990BFC01EE0FFF1FE80FF91FE85EFE4F8D
:1005100081819281820F931F90938900809388003C
:10052000E09100018E2FEE0F990BFC01EE0FFF1FE3
:10053000E80FF91FE85EFE4F808186FF11C0E09151
:1005400000018E2FEE0F990BFC01EE0FFF1FE80F3D
:10055000F91FE85EFE4F808161E08F730E94FF000B
:10056000FF91EF91DF91CF91BF91AF919F918F91CB
:100570007F916F915F914F913F912F910F900FBE9F
:100580000F901F90189580E49CE9909389008093C8
:1005900088008FEF80930001E3CFFC01909101016F
:1005A0009C3098F481E0890F809301019083892F1A
:1005B00090E0FC01EE0FFF1FE80FF91FE85EFE4F11
:1005C00088EB9BE09283818308958FEF8083089569
:1005D000789484B5826084BD84B5816084BD85B51E
:1005E000826085BD85B5816085BD80916E0081602A
:1005F00080936E00109281008091810082608093D0
:1006000081008091810081608093810080918000D1
:100610008160809380008091B10084608093B100FC
:100620008091B00081608093B00080917A008460F6
:1006300080937A0080917A00826080937A00809122
:100640007A00816080937A0080917A00806880933C
:100650007A001092C100E2EBF0E02491EEE9F0E0C4
:1006600084918823C1F090E0880F991FFC01EA571C
:10067000FF4FC591D491FC01E458FF4FA591B4916F
:100680009FB7F8948881E22FE0958E2388838C9120
:10069000E823EC939FBF63E070E088E091E00E9464
:1006A000870065E070E085E091E00E94870066E0E9
:1006B00070E082E091E00E94870010E488248A9430
:1006C00083E0982EA12CB12CC0E0D0E010937C00E8
:1006D00080917A00806480937A0080917A0086FD10
:1006E000FCCFA0917800B091790027E330E00E9420
:1006F000BA04A50194010E94AF03CA01B9016D5D5E
:100700007F4F8F4F9F4F0E944A0460930B0170935D
:100710000C0180930D0190930E010E9412046B0155
:1007200088E091E00E944B01B60185E091E00E94D3
:100730004B01B60182E091E00E944B01209731F21B
:100740000E940000C3CF88E091E00E94CD0285E0C6
:1007500091E00E94CD0282E091E00C94CD02052E42
:1007600097FB1EF400940E94C60357FD07D00E9419
:10077000E10307FC03D04EF40C94C603509540955A
:10078000309521953F4F4F4F5F4F0895909580953D
:10079000709561957F4F8F4F9F4F08950E9403047E
:1007A000A59F900DB49F900DA49F800D911D1124C5
:1007B0000895B7FF0C94CE030E94CE03821B930BC7
:1007C0000895A1E21A2EAA1BBB1BFD010DC0AA1F92
:1007D000BB1FEE1FFF1FA217B307E407F50720F0AA
:1007E000A21BB30BE40BF50B661F771F881F991F25
:1007F0001A9469F760957095809590959B01AC016E
:10080000BD01CF010895A29FB001B39FC001A39F76
:10081000700D811D1124911DB29F700D811D112439
:10082000911D08950E9419046894B1110C94A804B4
:1008300008950E948D0488F09F5798F0B92F99274A
:10084000B751B0F0E1F0660F771F881F991F1AF0BB
:10085000BA95C9F714C0B13091F00E94A704B1E075
:1008600008950C94A704672F782F8827B85F39F074
:10087000B93FCCF3869577956795B395D9F73EF454
:1008800090958095709561957F4F8F4F9F4F0895FC
:10089000E89409C097FB3EF490958095709561951A
:1008A0007F4F8F4F9F4F9923A9F0F92F96E9BB27D0
:1008B0009395F695879577956795B795F111F8CF4C
:1008C000FAF4BB0F11F460FF1BC06F5F7F4F8F4FB7
:1008D0009F4F16C0882311F096E911C0772321F0AD
:1008E0009EE8872F762F05C0662371F096E8862F45
:1008F00070E060E02AF09A95660F771F881FDAF79C
:10090000880F9695879597F9089557FD9058440F4D
:10091000551F59F05F3F71F04795880F97FB991F5E
:1009200061F09F3F79F0879508951216130614061B
:10093000551FF2CF4695F1DF08C0161617061806A8
:10094000991FF1CF86957105610508940895E89483
:10095000BB2766277727CB0197F90895991B79E084
:1009600004C0991F961708F0961B881F7A95C9F73F
:10097000809508950E940304B7FF0895821B930B8E
:100980000895EE0FFF1F0590F491E02D0994F8945F
:02099000FFCF97
:107E0000112484B714BE81FFF0D085E080938100F7
:107E100082E08093C00088E18093C10086E0809377
:107E2000C20080E18093C4008EE0C9D0259A86E02C
:107E300020E33CEF91E0309385002093840096BBD3
:107E4000B09BFECF1D9AA8958150A9F7CC24DD24C4
:107E500088248394B5E0AB2EA1E19A2EF3E0BF2EE7
:107E6000A2D0813461F49FD0082FAFD0023811F036
:107E7000013811F484E001C083E08DD089C08234E0
:107E800011F484E103C0853419F485E0A6D080C0E4
:107E9000853579F488D0E82EFF2485D0082F10E0AE
:107EA000102F00270E291F29000F111F8ED06801E7
:107EB0006FC0863521F484E090D080E0DECF843638
:107EC00009F040C070D06FD0082F6DD080E0C81688
:107ED00080E7D80618F4F601B7BEE895C0E0D1E017
:107EE00062D089930C17E1F7F0E0CF16F0E7DF06D8
:107EF00018F0F601B7BEE89568D007B600FCFDCFD4
:107F0000A601A0E0B1E02C9130E011968C91119780
:107F100090E0982F8827822B932B1296FA010C0160
:107F200087BEE89511244E5F5F4FF1E0A038BF0790
:107F300051F7F601A7BEE89507B600FCFDCF97BE46
:107F4000E89526C08437B1F42ED02DD0F82E2BD052
:107F50003CD0F601EF2C8F010F5F1F4F84911BD097
:107F6000EA94F801C1F70894C11CD11CFA94CF0C13
:107F7000D11C0EC0853739F428D08EE10CD085E9AC
:107F80000AD08FE07ACF813511F488E018D01DD067
:107F900080E101D065CF982F8091C00085FFFCCF94
:107FA0009093C60008958091C00087FFFCCF809118
:107FB000C00084FD01C0A8958091C6000895E0E648
:107FC000F0E098E1908380830895EDDF803219F02E
:107FD00088E0F5DFFFCF84E1DECF1F93182FE3DFCA
:107FE0001150E9F7F2DF1F91089580E0E8DFEE27F6
:047FF000FF270994CA
:027FFE00040479
:00000001FF
